:020000040800F2
:10000000D805002045010008EF1D0008011B00086D
:10001000ED1D0008A502000881290008000000006D
:10002000000000000000000000000000F3230008B2
:10003000A70200080000000029210008F52300089D
:100040005F0100085F0100085F0100085F01000810
:100050005F0100085F0100085F0100085F01000800
:100060005F0100085F0100085F0100085F010008F0
:100070005F0100085F0100085F0100085F010008E0
:100080005F0100085F0100085F0100085F010008D0
:100090005F0100085F0100085F0100085F010008C0
:1000A0005F010008A52400085F0100085F01000847
:1000B000B12400085F0100085F0100085F0100082B
:1000C0005F0100085F0100085F0100085F01000890
:1000D0005F0100085F0100085F0100085F01000880
:1000E0005F0100085F0100085F0100085F01000870
:1000F0005F0100085F0100085F0100085F01000860
:100100005F0100085F0100085F0100085F0100084F
:100110005F0100085F0100085F0100085F0100083F
:100120005F0100085F0100085F0100085F0100082F
:10013000DFF80CD000F0A4F800480047D12B0008ED
:10014000D80500200648804706480047FEE7FEE73E
:10015000FEE7FEE7FEE7FEE7FEE7FEE7FEE7FEE777
:100160005D24000831010008D2B201E000F8012B43
:10017000491EFBD270470022F6E710B513460A4627
:1001800004461946FFF7F0FF204610BD30B480EA60
:10019000010202F0004530F0004221F0004013D08F
:1001A00090B1C30DD40DC2F31601C0F31600E41ACA
:1001B00041F4000140F400027D34914201D3641CFB
:1001C00000E04900002C02DA30BC002070474FF4F8
:1001D00000000023914201D3891A034340084FEAEB
:1001E0004101F7D151B1914202D14FF0004105E0F8
:1001F00002D24FF0010101E06FF0010103EBC450A6
:10020000284430BC00F005B896230022114600F0C7
:1002100009B80029A8BF7047401C490008BF20F05A
:100220000100704710B4B0FA80FC00FA0CF050EAFC
:10023000010404BF10BC704749B1CCF1200421FA7D
:1002400004F411FA0CF118BF012121430843A3EB78
:100250000C01CB1D4FEA00614FEA102042BF002085
:1002600010BC704700EBC35010440029A4BF10BC61
:100270007047401C490008BF20F0010010BC7047C7
:10028000064C074D06E0E06840F0010394E80700E3
:1002900098471034AC42F6D3FFF74EFFD045000824
:1002A000F0450008FEE77047704700002DE9F84F61
:1002B000DFF8C891002409F1040A0AF1040B23466F
:1002C0000F270BF1040ED1E00125A54006EA050237
:1002D000AA4276D1DFF8A8C14E68A6EB0C086645A5
:1002E0002BD00DDC032E34D005DC36B3012E19D013
:1002F000022E2FD11BE0112E16D0122E2AD119E07A
:10030000B8F5881F19D006DCB8F5803F15D0B8F5D0
:10031000801F1FD111E0B8F5001F0ED0B8F5041FE3
:1003200018D10AE0CB6815E0CB681B1D12E0CB6842
:1003300008330FE0CB680C330CE08B682BB1012B3A
:100340004FF0080303D0456104E0042302E0056197
:1003500000E00023FF2A01D8064601E000F1040670
:100360004FEA840501D9A5F12005D6F8008007FAE7
:1003700005FC28EA0C0803FA05F548EA0508C6F862
:1003800000804D68ED0070D53E4DAE6946F0010627
:10039000AE61AD6924F0030605F0010500953A4D04
:1003A00006EB050CDCF80850A607360F07FA06F82E
:1003B00025EA0805DFF8D480404503D14FF0000856
:1003C00025E052E0DFF8C880404502D14FF0010837
:1003D0001DE0DFF8C080404502D14FF0020816E072
:1003E000DFF8B480404502D14FF003080FE0DFF89A
:1003F000AC80404502D14FF0040808E0DFF8A0804F
:10040000404502D14FF0050801E04FF0060808FA18
:1004100006F848EA0508CCF808804D68D9F800606D
:10042000ED034D4601D5164300E096432E604D681E
:10043000DAF80060AD03554601D5164300E0964357
:100440002E604D68DBF80060ED025D4601D5164375
:1004500000E096432E604D68DEF80060AD02754600
:1004600001D5164300E096432E60641C0A681646C8
:10047000E2407FF429AFBDE8F88F0000000401409E
:10048000000011100010024000000140000801406F
:10049000000C014000100140001401400018014010
:1004A000001C01408068084000D0012070470AB15C
:1004B000016170470904FBE701488068704700004C
:1004C0008C000020024881680278114481607047E6
:1004D0008C000020074810B5016841F01001016050
:1004E000032000F075F8002000F006F800F024F872
:1004F000002010BD0020024070B50D4D04464FF4A1
:100500007A712878B1FBF0F00A490968B1FBF0F084
:1005100000F0C0FE48B9102C07D200222146501E20
:1005200000F036F800206C6070BD012070BD000046
:100530008C000020980000200C4808B5816941F02B
:1005400001018161816901F001010091C16941F0FE
:100550008051C161C06900F080500090044841683A
:1005600021F0E06141F00071416008BD00100240DF
:1005700000000140002809DB00F01F02012191402A
:100580004009800000F1E020C0F800117047000031
:10059000F0B40E4B1B680C46C3F30223C3F10705EE
:1005A000042D00D90425191D072901D2002300E0DC
:1005B000DB1E012606FA05F1491E214099409E40A6
:1005C000761E16403143F0BC02F0DBB90CED00E0C2
:1005D000064900F0070208684FF6FF03184040EA9A
:1005E0000220034A10430860704700000CED00E051
:1005F0000000FA05014901200862704700000E4220
:1006000010B52CA401461DCC86B08DE81D002DA090
:100610002D4C00680490002004292FD00BDC012908
:100620002FD0022928D100F071F96168C1F381311E
:10063000491C49001EE0082920D010291CD16168FE
:100640002268D20118D5C1F38342C9031DF8020004
:1006500009D5616804AAC1F34041515C1B4AB2FB51
:10066000F1F1484301E01A4948436168490203D463
:1006700040000321B0FBF1F006B010BD00F056F9C8
:10068000FAE7226AC2F30121012903D1920701D5B9
:10069000C803F1E7022905D1626A920702D549F63B
:1006A0004040E9E70329E7D121688903E4D54FF207
:1006B0002440E1E702030405060708090A0B0C0DB4
:1006C0000E0F1010010200000010024000127A000C
:1006D00000093D002DE9F84305460078354CC00778
:1006E00054D0E0690026C00008D4E06940F0805092
:1006F000E061E069012600F0805000902E4801681A
:10070000C90512D40168804641F480710160FFF789
:10071000D3FE074605E000BFFFF7CEFEC01B6428EE
:1007200023D8D8F80000C005F6D5206A10F4407030
:1007300021D0A98801F4407181421CD0206A1F4950
:10074000012220F440700A6000220A602062C00783
:1007500011D0FFF7B1FE074641F2883808E000BF2C
:10076000FFF7AAFEC11B414502D90320BDE8F8836B
:10077000206A8007F4D5206A696820F44070084335
:1007800020621EB1E06920F08050E0612878800787
:1007900005D56068A96820F4404008436060287867
:1007A000C00605D56068696920F480000843606070
:1007B0000020DBE70010024000700040400442428D
:1007C0002DE9F0470F46050061D0434E306800F038
:1007D0000700B84209D2306820F007003843306083
:1007E000306800F00700B84251D128683B4C8107BF
:1007F00012D5400703D5606840F4E0606060287857
:10080000000703D5606840F4605060606068A968C4
:1008100020F0F000084360602878C00728D068689E
:10082000012810D02168022810D0890700292EDA6B
:10083000616821F0030101436160FFF73DFE8046DE
:1008400041F288390DE021688903EFE78901EDE77E
:10085000FFF732FEA0EB0801494502D90320BDE8AD
:10086000F0876068696800F00C00B0EB810FEFD191
:10087000306800F00700B8420BD9306820F007005C
:1008800038433060306800F00700B84201D00120E2
:10089000E5E72878400705D56068E96820F4E0605E
:1008A000084360602878000706D56068296920F44D
:1008B000605040EAC100606000F038F86168084AA2
:1008C000C1F30311515CC84006490860064800683E
:1008D000FFF712FE0020C2E7002002400010024095
:1008E0009C4500089800002090000020044805491D
:1008F00000684968044AC1F30221515CC84070474E
:100900009800002000100240AC450008044805494A
:1009100000684968044AC1F3C221515CC84070476D
:100920009800002000100240AC45000812A185B0DC
:100930000FC98DE80F0014A0144A00680490516894
:10094000134801F00C03042B10D0082B0ED1C1F377
:100950008343C9031DF803000AD5516804AAC1F3F3
:100960004041515C0A4A5043B0FBF1F005B070477A
:1009700008494843FAE7000002030405060708098E
:100980000A0B0C0D0E0F10100102000000100240A7
:1009900000127A0000093D002DE9F84F040070D0E4
:1009A0002078C04DC00749D06868C0F38100012895
:1009B00007D06868C0F38100022809D16868C003C5
:1009C00006D52868800339D560680028E7D035E06F
:1009D0006068B0F5803F0BD010B1B0F5A02F11D0FA
:1009E000286820F480302860286820F4802002E005
:1009F000286840F480302860606890B1FFF75CFDA3
:100A000006460AE0286840F480202860F0E700BF2E
:100A1000FFF752FD801B642873D828688003F7D540
:100A20000CE0FFF749FD064605E000BFFFF744FD77
:100A3000801B6428F0D828688003F7D420789A4E69
:100A400080074FF001094FF0000839D5686810F0B1
:100A50000C0F07D06868C0F38100022809D16868CC
:100A6000C00306D42868800714D52069012808D15E
:100A700010E02069B0B1C6F80090FFF71DFD0746F1
:100A800005E00AE1FFF718FDC01B0228C4D828685A
:100A90008007F7D52868616920F0F80040EAC100B6
:100AA00028600DE0C6F80080FFF706FD074604E069
:100AB000FFF702FDC01B022823D828688007F7D45F
:100AC000207800072CD57948A169D9B1C0F80090E9
:100AD000FFF7F2FC074604E0FFF7EEFCC01B02281C
:100AE0000FD8686A8007F7D571484FF4FA5100684B
:100AF000B0FBF1F0009000BF0098411E0091FAD2C7
:100B00000EE080E0C0F80080FFF7D6FC074604E066
:100B1000FFF7D2FCC01B022875D8686A8007F7D49B
:100B20002078400760D5E8690027C00008D4E8694C
:100B300040F08050E861E869012700F080500090A3
:100B40005C480168C90513D40168834641F480718B
:100B50000160FFF7B1FC824606E000BFFFF7ACFC86
:100B6000A0EB0A0064284ED8DBF80000C005F5D5DC
:100B7000E06801280AD008B1052813D0286A20F0BF
:100B800001002862286A20F0040002E0286A40F090
:100B900001002862E06841F2883B98B1FFF78CFCC5
:100BA00082460BE0286A40F004002862EEE700BFAE
:100BB000FFF782FCA0EB0A0159455AD8286A800742
:100BC000F6D50CE0FFF778FC824605E0FFF774FCF1
:100BD000A0EB0A0159454CD8286A8007F6D41FB10A
:100BE000E86920F08050E861E06988B36968C1F382
:100BF0008101022944D00228C6F8608004D0FFF7A2
:100C00005BFC044638E034E0FFF756FC074604E09E
:100C1000FFF752FCC01B02282BD828688001F7D4AC
:100C2000206AB0F5803F05D16868A16820F40030E3
:100C300008436860D4E908010843696821F4741125
:100C400008436860C6F86090FFF736FC044606E08B
:100C500025E000BFFFF730FC001B022809D82868F8
:100C60008001F7D51BE000BFFFF726FC001B022820
:100C700002D90320BDE8F88F28688001F4D40EE083
:100C80000128F7D06868226A00F48031914204D1CB
:100C9000616A00F47010884201D00120EAE7002068
:100CA000E8E7000000100240000042428004424297
:100CB0009800002000700040F8B505004FF00000DB
:100CC00016460C46009006D02CB1002269462846F4
:100CD00000F019F808B10120F8BD287B2070E87BEE
:100CE000E070697B6170A97BA17056B101F026FAB2
:100CF000E070607801F022FA6070A07801F01EFACE
:100D0000A0700020F8BD2DE9F04791460C465FEA3F
:100D100000084AD084B3D8F800004068400744D4A3
:100D2000404601F0A9FA4FF461620546B0FBF2F1CA
:100D3000B0FBF2F302FB13503C23B0FBF3F0B5FB26
:100D4000F2F6607002FB1650B0FBF3F203FB1200E8
:100D5000A070182931D31820B1FBF0F7B1FBF0F2E5
:100D600000FB12102070404601F07FFA411C04D0B5
:100D7000A84202D9461B02E017E04FF0FF36A7EB6E
:100D8000071000EB4000C0EB001005EBC015294632
:100D9000404601F0C0FA40B9701C01D0711900E062
:100DA0003146404601F0A3FA10B10120BDE8F087BA
:100DB0003946404601F0CDF900E02170B9F1000F4D
:100DC0000BD0207801F0BAF92070607801F0B6F904
:100DD0006070A07801F0B2F9A0700020E6E7000092
:100DE00070B5040003D0607C002610B105E001203E
:100DF00070BD2674204600F043F80220607420463F
:100E000000F010F9042578BB204601F0F9F958BB31
:100E10002068416821F007014160A06820B11748AF
:100E2000016821F0010101601448001F0168A268F7
:100E300021F46071114301606068411C04D10120FC
:100E4000FFF7DEFB80B1401E21688A6822F00F02A6
:100E500042EA10428A602168CA6860F30F02CA60E1
:100E6000204601F0E7F908B16574C0E7E673012098
:100E70006073A0736074002070BD0000306C00408F
:100E800008B50068084988420DD1FFF7B3FB074851
:100E9000C16941F00061C161C069054900F00060AD
:100EA00000900120086008BD0028004000100240AA
:100EB0003C0442422DE9F0410D4604003BD0C5B34D
:100EC000207C01283AD04FF0010884F810800220DD
:100ED0006074E87872B301F028F9E073687801F083
:100EE00024F96073A87801F020F9A073C2B2617B85
:100EF000E07B01F0D1F920732870204601F0BCF9A5
:100F00004FF46161B0FBF1F1002518292DD91822A9
:100F1000B1FBF2F1A1EB011101EB4101C1EB0111B8
:100F200000EBC1163146204601F0F5F90427C8B997
:100F30000BE000E004E00120BDE8F0810220FBE7C7
:100F4000E07368786073A878CFE7204601F08DF9E8
:100F5000411C0AD0B04208D206490144204601F0A3
:100F6000C6F910B167742574E5E784F8118025741B
:100F70000020E1E7805101002DE9F0410D46040019
:100F800024D01DB3207C012823D04FF0010884F821
:100F90001080022060742878EAB101F0C6F84FF49E
:100FA000616100FB01F6687801F0BFF8C0EB00104A
:100FB00006EB8006A87801F0B8F8351829462046D7
:100FC00001F0A9F90026042710BB0FE00120BDE8BD
:100FD000F0810220FBE74FF4616148436978C1EB7F
:100FE000011100EB8100A9784518E7E72068416806
:100FF00021F005014160204601F037F9411C0AD07B
:10100000A84208D206490144204601F070F910B107
:1010100067742674DAE784F8118026740020D6E716
:101020008051010070B504000AD02068416821F0A9
:1010300008014160FFF740FA05464FF47A7608E070
:10104000012070BDFFF738FA401BB04201D90320E0
:1010500070BD206840680007F4D5002070BD70B5F1
:10106000040005D00025A56294F8510010B106E0F7
:10107000012070BD84F85050204600F02FF8022067
:1010800084F851002068016821F040010160D4E932
:1010900001010843D4E9031211430843616908437D
:1010A000218B01F400710843E1690843216A084378
:1010B000A16A084321680860A069042101EA104080
:1010C000216848602068C16921F40061C1616565DB
:1010D000012084F85100002070BD000000B585B0EB
:1010E0000021009101910291039100680F4988420B
:1010F0001AD10F48816941F480518161816901F4FD
:1011000080510491816941F00401816180696946DF
:1011100000F004000490B020009002200190032011
:1011200003900448FFF7C2F805B000BD003001404D
:1011300000100240000801402DE9F84F044690F8E5
:10114000500000271D461646894601280DD04FF055
:10115000010B84F850B0FFF7AFF9804694F85100C6
:10116000BA46012804D002278EE00220BDE8F88F9D
:10117000B9F1000F7DD0002E7BD0032084F8510000
:10118000C4F854A0C4F83090A686E686C4F838A007
:10119000A4F83CA0A4F83EA0C4F844A0C4F840A021
:1011A000A068B0F5004F04D12068016841F4804187
:1011B000016020680168490603D4016841F04001DC
:1011C0000160E068B0F5006F606803D030B3012EB5
:1011D00024D040E008B1012E1CD1206B216800888A
:1011E000C86006E020688168890709D5216B0988F5
:1011F000C160206B801C2063E08E401EE08609E009
:10120000FFF75AF9A0EB0800A84202D3681C01D0EE
:1012100031E07DB3E08E0028E4D11FE0206B21682F
:101220000078087306E020688168890709D5216B7A
:1012300009780173206B401C2063E08E401EE0861D
:1012400009E0FFF739F9A0EB0800A84202D3681CB7
:1012500001D010E075B1E08E0028E4D14246294665
:10126000204601F06CF808B120206065A06820B12C
:1012700007E008E0FFE7032706E02068C168806810
:101280000090606D00B1012784F851B084F850A03F
:1012900038466BE710B5401EB0F1807F01D30120C6
:1012A00010BD4FF0E02460610F21601701F069FB71
:1012B0000020A06107202061002010BD704770470A
:1012C00070B590F83C20012A19D0012400F83C4F59
:1012D0000222427050F83C3C5A689D6822F0700629
:1012E0000A684968324325F0800529435A6050F85E
:1012F0003C2C9160447000210170084670BD0220B2
:1013000070BD10B5040003D094F83D0010B107E0A3
:10131000012010BD002084F83C00204600F00CF8AD
:10132000022084F83D00211D206801F0C7F801204B
:1013300084F83D00002010BD00B585B0002100916B
:101340000191029103911B4A01681B4891420ED101
:10135000816941F4006181618069002200F40060CC
:10136000049011461920FFF713F919201EE0B1F17E
:10137000804F1DD1C16941F00101C161C16901F016
:1013800001010491816941F004018161806969462C
:1013900000F004000490012000900848FEF786FF4A
:1013A000002211461C20FFF7F3F81C20FFF7E2F89B
:1013B00005B000BD002C01400010024000080140B3
:1013C000022180F83D1001688A6802F00702062AAF
:1013D00003D00A6842F001020A60012180F83D1042
:1013E000002070470168CA6842F00102CA600068C4
:1013F000816801F00701062903D0016841F001016D
:1014000001600020704770B5044690F83C00012848
:1014100017D0012584F83C50022084F83D00206854
:10142000826822F0770222F47F42826008685028A6
:1014300030D00DDC20284DD005DC98B310283BD1EE
:1014400048E0022070BD302844D0402834D139E033
:10145000602828D0702806D0B0F5805F2CD0B0F579
:10146000005F29D10AE0CB68D1E90121206801F0B1
:1014700078F82068816841F0770109E0CB68D1E90C
:101480000121206801F06DF82068816841F48041F5
:10149000816011E0CA684968206801F074F8502141
:1014A000206807E016E0CA684968206801F0B2F8D1
:1014B0006021206801F05FF884F83D50002084F836
:1014C0003C0070BDCA684968206801F05CF84021A2
:1014D0002068EFE7226801461046EBE770B5044646
:1014E00000680025B0F1804F11D101212148FEF79D
:1014F000D9FF002660B12068016A21F00A0101626B
:101500002068016A41F0020101622068466270BDF4
:101510000021204600F074FA21680A6A22F00A02CB
:101520000A6221680A6A0A62A0F58852313A1249B1
:10153000C72A02D20120087015E0A0F2F512632A32
:101540000ED3A0F24162952A01D2012508E040F2B3
:10155000CF72A0F2D170904202D24888401C4880DD
:1015600008780028D3D0486805EB400048604E80DA
:1015700070BD000000080140800000202DE9F0410E
:10158000044690F83C000D4601283BD0012684F823
:101590003C60022084F83D009AB3042A44D02068BD
:1015A000082A53D0D5E90027E968036A23F4805359
:1015B0000362D0F81CC0036A2CF4407C4CEA072775
:1015C0004FF6FF7C27F470470CEA0131394377036B
:1015D00023F4005307EA02321A43C1610262206811
:1015E000C16921F44061C1612068C169AA6841EA0A
:1015F0000221C16184F83D60002084F83C00BDE810
:10160000F08101E00220FAE7D5E90012EB682068DA
:1016100000F0CAFF2068816921F00C018161206817
:101620008169AA6811430FE0D5E90012EB682068D0
:1016300001F002F82068816921F44061816120682D
:101640008169AA6841EA02218161D3E7D5E9002CCA
:101650002F7B016A21F480710162C169036A21F064
:10166000030141EA0C0121F0F00C39074FF4007737
:101670004CEA116123F4007307EA02221A43C161A4
:1016800002622068C16921F00C01C1612068C16952
:10169000AA681143ADE710B5040003D094F83D00EB
:1016A00010B107E0012010BD002084F83C00204666
:1016B00000F00CF8022084F83D00211D206800F0A5
:1016C000FDFE012084F83D00002010BD704710B5DC
:1016D00004460068012200F037FF2068816801F0AD
:1016E0000701062903D0016841F0010101600020D3
:1016F00010BD10B50268044631B1042908D008298C
:101700001AD00C2908D11BE0D06840F0020002E09A
:10171000D06840F00400D0600122206800F014FF7F
:101720002068816801F00701062903D0016841F0B3
:1017300001010160002010BDD06840F00800EAE718
:10174000D06840F01000E6E770B504460068016913
:101750004FF00005C943890715D4C168C9438907FB
:1017600011D4E91E0161012020772068806980077B
:10177000204602D0FFF7B2FE04E000F098F82046C1
:1017800000F096F8257720680169C943490717D406
:10179000C168C943490713D46FF0040101610220F5
:1017A00020772068806910F4407F204602D0FFF740
:1017B00095FE04E000F07BF8204600F079F82577EC
:1017C00020680169C943090716D4C168C9430907DC
:1017D00012D46FF008010161042020772068C069ED
:1017E0008007204602D0FFF779FE04E000F05FF8A2
:1017F000204600F05DF8257720680169C943C906D5
:1018000017D4C168C943C90613D46FF01001016130
:10181000082020772068C06910F4407F204602D05D
:10182000FFF75CFE04E000F042F8204600F040F8CC
:10183000257720680169C943C90708D1C168C94330
:10184000C90704D1891E0161204600F033F82068E1
:101850000169C943090609D4C168C943090605D409
:101860006FF0800101612046FFF728FD20680169C3
:10187000C943490609D4C168C943490605D46FF074
:1018800040010161204600F0D0F820680169C94399
:1018900089060BD4C168C943890607D46FF02001BB
:1018A00001612046BDE87040FFF709BD70BD70477B
:1018B000704700002DE9F04100684D49884203D18E
:1018C000BDE8F04100F0E4BFB0F1804F70D149486D
:1018D000007800286CD048490888142801D90020D5
:1018E00001E0421C0A80088000287ED100F00AF93D
:1018F000424CFF250026207004F14C0790285CD054
:1019000012DC4A2838D008DC02284DD010282DD00F
:10191000182839D0222851D144E05A281ED06228F4
:101920003CD068284AD110E0B02811D006DC9828B5
:1019300030D0A22830D0A82840D13CE0C22835D0F1
:10194000E02836D0E22839D12AE06670A67035E06A
:10195000FF206070A070012038762FE06078782832
:1019600001D9002000E00830607027E0607808B1FD
:101970000838F9E77820F7E7A078072801D9002090
:1019800000E0801CA07019E0A07808B1801EF9E783
:101990000620F7E7002511E001250FE002250DE004
:1019A00003250BE0042509E0052507E0062505E0F1
:1019B0001BE0072502E0082500E009250022A178A8
:1019C000607800F0CBFA0A2D0FD2A17851B102292C
:1019D0000BD13E763035EAB26078BDE8F041102395
:1019E00000F0C8BA31463E76F4E7BDE8F081000069
:1019F000002C01408000002088000020040000200E
:101A00000246002041B1042909D008290AD00C2936
:101A100001D11068006C70471068406B7047106807
:101A2000806B70471068C06B7047704770B50400DA
:101A300004D094F83900002510B106E0012070BDF3
:101A400084F83850204600F023F8242084F8390028
:101A50002068C16821F40051C160204600F034FFC5
:101A60002068016921F4904101612068416921F0F9
:101A70002A0141612068C16841F40051C160E563F9
:101A8000202084F8390084F83A00002070BD00005E
:101A900030B585B00024009401940294039400684A
:101AA0001449884224D11448816941F480418161FC
:101AB000816901F480410491816941F004018161EF
:101AC00080690E4D00F0040004904FF40070009007
:101AD000022001900320039069462846FEF7E6FBAA
:101AE0002815CDE90004694628460294FEF7DEFB7E
:101AF00005B030BD00380140001002400008014030
:101B0000FEE7000010B509480024416804706FEA40
:101B100011400A0EC0B2904205D1C1F30720C9435B
:101B2000C9B2814200D0002010BD0000800000201A
:101B300010B50848FFF744FC0648FFF753FC0021A6
:101B40000448FFF7C4FDBDE8104000210148FFF73D
:101B5000D0BD0000580100202DE9F04385B00024DD
:101B600024480094019402940394816941F0100187
:101B70008161816901F010010491816941F02001C6
:101B80008161816901F020010491816941F00401C2
:101B900081618069DFF8608000F004000490002219
:101BA00030214046FEF783FC0122DFF850901702F7
:101BB00039464846FEF77BFC0225CDE900546946CC
:101BC00048460294FEF772FB30200126CDE900065C
:101BD00069464046CDE90245FEF768FBCDE900764F
:101BE00069464846CDE90245FEF760FB05B0BDE811
:101BF000F083000000100240001001400008014086
:101C00001CB500211A480191184A009102604A1E31
:101C1000C0E90121FFF7E4F808B1FEF745FB122007
:101C20008DF804003A208DF8050038208DF8060064
:101C3000002201A90E48FFF79FF908B1FEF734FB17
:101C400003208DF8000004208DF801001D208DF880
:101C5000020014208DF80300002269460448FFF7B3
:101C600029F9002801D0FEF71FFB1CBD0028004009
:101C7000AC0000200F4810B50D4901604FF482718F
:101C8000416000218160C1604FF480220161C0E9A0
:101C90000512C1610162416281620A21C162FFF7DE
:101CA000DEF9002803D0BDE81040FEF7FDBA10BDF4
:101CB00000300140C000002010B586B00024174855
:101CC00000940194029403940494134905940160D0
:101CD0001F21C0E9011440F2E731C0E90314446157
:101CE0008461FFF70EFB08B1FEF7DEFA4FF4805077
:101CF000009069460948FFF786FB08B1FEF7D4FA61
:101D0000049404A905480594FFF7DAFA002801D0E5
:101D1000FEF7CAFA06B010BD002C014018010020E1
:101D200010B58AB0002422480494059406940794C0
:101D3000089409940094019402944FF08041039414
:101D400001601F21C0E9011442F20F71C0E90314C0
:101D50008461FFF7D6FA08B1FEF7A6FA4FF4805077
:101D6000049004A91248FFF74EFB08B1FEF79CFA55
:101D70000F48FFF790FC08B1FEF796FA089408A9FF
:101D80000B480994FFF79CFA08B1FEF78DFA012081
:101D9000CDE900400320CDE9024000226946044815
:101DA000FFF7ECFB002801D0FEF77EFA0AB010BD69
:101DB000580100200C4810B50A4901604FF4E13188
:101DC0004160002181600C22C160C0E90412816180
:101DD000C161FFF72BFE002803D0BDE81040FEF7DD
:101DE00063BA10BD0038014098010020FEE770473B
:101DF00010B50446B031C8B2012100F079F91020C5
:101E000040EA1410012100F073F904F00F00BDE85E
:101E1000104040F00100012100F06AB970B50024C3
:101E200004F1B000C0B2012100F062F901210020EC
:101E300000F05EF90121102000F05AF90025002180
:101E4000084600F055F96D1CEDB2802DF7D3641CE7
:101E5000E4B2082CE4D370BD10B53F4C0022202121
:101E60002046FEF724FB4FF4FA7000F0A9FD012292
:101E700020212046FEF71BFB0121AE2000F038F99F
:101E80000121022000F034F90121102000F030F986
:101E90000121402000F02CF90121812000F028F9D7
:101EA0000121FF2000F024F90121A12000F020F9F8
:101EB0000121C82000F01CF90121A82000F018F928
:101EC00001213F2000F014F90121D32000F010F986
:101ED0000121002000F00CF90121D52000F008F9C3
:101EE0000121802000F004F90121D92000F000F93F
:101EF0000121F12000F0FCF80121DA2000F0F8F8CF
:101F00000121122000F0F4F80121DB2000F0F0F8AC
:101F10000121402000F0ECF80121202000F0E8F839
:101F20000121022000F0E4F801218D2000F0E0F80A
:101F30000121142000F0DCF80121A42000F0D8F8E1
:101F40000121A62000F0D4F80121AF2000F0D0F844
:101F5000BDE81040FFF762BF00100140044B80282D
:101F600000D21870082900D259709A70704700008A
:101F7000000000202DE9F047203A002498460F4643
:101F80008146D6B2062B2DD07D1CB8F10C0F39D06E
:101F9000102B25D13946FFF72BFF354935480B78F3
:101FA00099454DD149788F424AD100EB0616002160
:101FB000305DC043C0B200F09BF8641CE4B2082C52
:101FC000F5D3E9B24846FFF713FF08240021305D3E
:101FD000C043C0B200F08CF8641CE4B2102CF5D3FE
:101FE000BDE8F087FFF704FF234806EB460100EB4E
:101FF00041050021285D00F07BF8641CE4B24445F3
:10200000F7D3EDE73946FFF7F3FE1C4906EB460030
:1020100001EB80060021305D00F06AF8641CE4B238
:10202000062CF7D3E9B24846FFF7E2FE062400216A
:10203000305D00F05DF8641CE4B20C2CF7D3CFE700
:1020400000EB06160021305D00F052F8641CE4B28B
:10205000082CF7D3E9B24846FFF7CAFE082400214E
:10206000305D00F045F8641CE4B2102CF7D3B7E7FC
:1020700000000020AC320008102C0008382E0008A8
:102080002DE9F05F002591468B4606461F46082B3A
:1020900003D900BF4FEAD70001E04FF001008246AC
:1020A00002D94FEA570400E01C464FF08000B0FB15
:1020B000F4F0A0F10100C1B204FB01F0A0F10108AD
:1020C0000FE03B4659463046FFF754FF3019C6B281
:1020D000B04504DA0BEB0A00002600F0FF0B6D1C84
:1020E000EDB219F80520002AEBD1BDE8F09F000001
:1020F00013B50B4C09B1002200E00122102120464B
:10210000FEF7D5F94FF47A73012269460548FFF7C7
:1021100013F8012210212046FEF7C9F91CBD00006A
:1021200000100140C00000207047010901EB81014F
:1021300000F00F0000EB4100C0B27047002102E048
:102140000A38C0B2491C0A28FAD2090740EA1160CD
:1021500070472DE9F04104460025C07B627BA37BDC
:1021600042E0012A16D0032A14D0052A12D0072AE9
:1021700010D0082A0ED00A2A0CD00C2A0AD0042A21
:1021800010D0062A0ED0092A0CD00B2A0AD0022A17
:102190000DD028E01F2B0CD30C2A05D101221346A9
:1021A000401C20E01E2B04D30123521C1BE01C2BDF
:1021B00002D203F1010316E011D183B29E0710D1C0
:1021C0006426B3FBF6F706FB173636B94FF4C8762C
:1021D000B3FBF6F706FB17331BB91D2303E01D2BDA
:1021E00001D1032201236D1C8D42BAD3D1B2E07319
:1021F0006173DAB2A27300F04FF82073BDE8F0818A
:1022000070B50446FEF758F905464FF47A7606E0B5
:10221000FEF752F9401BB04201D9032070BD20687F
:1022200040688006F4D52068416841F010014160A3
:10223000002070BD70B504460068416821F01001AF
:102240004160FEF739F905464FF47A7607E000BFA2
:10225000FEF732F9401BB04201D9032070BD20685F
:1022600040688006F4D5002070BD0168086A496A9C
:1022700089B241EA00407047006881698AB2C16949
:102280008BB2816989B28A4203D0C06961F31F4071
:10229000704743EA02407047F0B56424C1EBC103C4
:1022A0000927A500072603EB01130329B3FBF7F168
:1022B00000F5FA60114401440AD2401EB0FBF4F26A
:1022C00001EB9001B0FBF5F0891A0844001D08E00D
:1022D000B0FBF4F201EB9001B0FBF5F0891A084471
:1022E000801CB0FBF6F106FB1100C0B2F0BD70B56A
:1022F0000D4606460024FFF783FF48B93168280CD5
:1023000008623168A8B248623046FFF793FF00B117
:102310000124204670BD70B50D4606460024FFF727
:102320006FFF48B93168280C88613168A8B2C8616C
:102330003046FFF77FFF00B10124204670BD38B55D
:102340000B46009204460022802100F008F8002885
:1023500004D0606D40F020006065032038BD2DE999
:10236000F0411D4617460E460446DDF8188008E089
:10237000681C06D0FEF7A0F8A0EB0800A8420BD21C
:1023800055B12068806836EA000030D00020B8429D
:10239000EED10020BDE8F0812068416821F0E00125
:1023A00041606068B0F5827F0BD1A068B0F5004F46
:1023B00002D0B0F5806F04D12068016821F040019F
:1023C0000160A06AB0F5005F09D12068016821F4BE
:1023D000005101602068016841F400510160012052
:1023E00084F85100002084F850000320D2E7012037
:1023F000CDE77047FEF766B870B596B028216846FD
:10240000FDF7B9FE14210AA8FDF7B5FE18210FA8A3
:10241000FDF7B1FE0920012500904FF48030002423
:1024200004950695CDE901040226CDE90760C000B8
:1024300009906846FEF7B0FA0F200A90CDE90B64C8
:102440000D9401210AA80E94FEF7BAF96802CDE9AD
:102450000F500FA8FEF73EF916B070BD0D48016889
:1024600041F00101016041680B4A1140416001687F
:102470000A4A11400160016821F48021016041682D
:1024800021F4FE0141604FF41F0181600449C00343
:1024900008607047001002400000FFF8FFFFF6FEE2
:1024A00008ED00E00148FFF74FB9000018010020D7
:1024B0000148FFF749B9000058010020F0B5026853
:1024C0001C4B1D4D1D4E1E4F1E4C4FF0804C984214
:1024D00009D0A04207D0604505D0A84203D0B04241
:1024E00001D0B84204D122F0700E4A6842EA0E02CE
:1024F000984209D0A04207D0604505D0A84203D039
:10250000B04201D0B84203D122F44075CA682A43D0
:102510004D6922F080022A4302608A68C2620A681A
:102520008262984201D0A04201D109690163012170
:102530004161F0BD002C0140000400400008004053
:10254000000C00400034014010B501F01F030121D0
:10255000046A99408C430462016A9A401143016203
:1025600010BD10B5846842EA032224F47F440A4374
:102570002243826010BD826822F070020A4342F05A
:1025800007018160704710B5036A046A24F00104F2
:102590000462846924F0F00444EA021423F00A027D
:1025A0000A438461026210BD70B5046A24F001041C
:1025B00004628469056A124EB0420ED0114EB042D8
:1025C0000BD0B0F1804F08D00F4EB04205D00F4E67
:1025D000B04202D00E4EB04203D124F003041443A3
:1025E00001E044F001041A0724F0F00444EA126206
:1025F00025F00A0301F00A0119438261016270BDEE
:10260000002C01400034014000040040000800405C
:10261000000C004010B5036A23F0100303628369C5
:10262000046A23F4704343EA023224F0A00343EA2D
:1026300001118261016210BD30B5046A24F01004FA
:1026400004628469056A24F4407444EA022222F494
:1026500070444FF6FF7202EA03322243A02425F0B1
:10266000A00304EA011119438261016230BD000038
:1026700010B504460246002110230846FFF700FD6E
:10268000102304F1140200216720FFF7F9FC102346
:1026900004F10B0202210020FFF7F2FC10230DA22F
:1026A00004210020FFF7ECFC102304F11E0204219A
:1026B0002020FFF7E5FC102308A206210020FFF7E9
:1026C000DFFC04F1180210230621BDE81040202091
:1026D000FFF7D6BC54454D3A0000000048554D3A2E
:1026E0000000000070B50446002220492048FEF793
:1026F000E3FA322020701D4930206070CA780A2029
:10270000B2FBF0F23032A270CA78B2FBF0F300FBF9
:1027100013223032E2702D2323714A78B2FBF0F598
:1027200030356571B2FBF0F500FB15223032A27135
:10273000E3718A78B2FBF0F330332372B2FBF0F32B
:1027400000FB13203030607208780721B0FBF1F2F3
:1027500001FB120005492A3151F82000017821754A
:10276000417861758078A07570BD00000A00002076
:10277000AC00002070B504461D4800F0ABF90028FD
:1027800034D11B490A208A78B2FBF0F33033A377A7
:10279000B2FBF0F300FB13223032E2772E2384F8F1
:1027A0002030CA78B2FBF0F5303584F82150B2FB06
:1027B000F0F500FB1522303284F822200A78B2FBB3
:1027C000F0F5303504F8185FB2FBF0F500FB152288
:1027D00030326270A3704978B1FBF0F23032E270AF
:1027E000B1FBF0F200FB12103030207170BD000020
:1027F0009C00002070B50446002215491548FEF7DC
:1028000082FA13490A200A78B2FBF0F33033E372FC
:10281000B2FBF0F300FB1322303222733A236373CE
:102820004A78B2FBF0F53035A573B2FBF0F500FB4A
:1028300015223032E27323748978B1FBF0F2303222
:102840006274B1FBF0F200FB12103030A07470BD66
:1028500007000020AC0000202DE9F04100240B4DC2
:10286000274600BF04EB440015F8201041B105EBEA
:102870008006707820B10548B16842388847777083
:10288000641CE4B2042CEDD3BDE8F08150000020BC
:102890000C4A002000EB400112F8213063B102EB3A
:1028A00081014B8843B15B1E1B041B0C4B8003D181
:1028B0008B884B8001234B70401CC0B20428E9D3A5
:1028C00070470000500000202DE9F04104460068E8
:1028D0000169E26821F44051114301612169A06856
:1028E0000843616908432168CA6841F20C639A434E
:1028F0000243CA6020684169A26921F44071114312
:1029000041611E49206864253226884202D1FDF7C4
:10291000FDFF01E0FDF7EAFF00EBC00101EB001154
:1029200060686FF018078000B1FBF0F2B2FBF5F2BF
:10293000B1FBF0F37A4303EB8202B1FBF0F306EB59
:102940000212B2FBF5F2B3FBF5F302F0F00202EB78
:102950000312B1FBF0F3B1FBF0F0B0FBF5F07843FC
:1029600003EB800006EB0010B0FBF5F0216800F0EF
:102970000F0010448860BDE8F0810000003801407D
:10298000FEE70907090E002804DB00F1E02080F8CB
:102990000014704700F00F0000F1E02080F8141DD3
:1029A000704702E008C8121F08C1002AFAD1704718
:1029B0007047002001E001C1121F002AFBD17047BF
:1029C0004FF47A6148434FF0E0214861002088616C
:1029D00001220A610A69D30701D0D203FAD508613E
:1029E0008861704781004FF0E020416100218161E2
:1029F000012202610269D30701D0D203FAD5016135
:102A00008161704700B585B000200190029003906D
:102A10000848816941F0040181618069694600F0DC
:102A200004000490022000900348FDF73FFC05B02D
:102A300000BD0000001002400008014000B585B054
:102A4000002002900A48816941F004018161806997
:102A5000694600F0040004900220009001200190DB
:102A6000032003900348FDF721FC05B000BD0000E2
:102A7000001002400008014010B50D4C0221204614
:102A8000FDF710FD0028F9D02820FFF7ABFF022149
:102A90002046FDF707FD012801D0002010BD0221CE
:102AA0002046FDF7FFFC0128F9D0012010BD0000F1
:102AB0000008014070B5002004464FF6FF7500BFC6
:102AC00005EA4006FFF7D8FF641C3043E4B2082C47
:102AD000F6D370BD2DE9F047044600F05FF82D4DA8
:102AE00002212846FDF7DEFC002851D102212846AC
:102AF000FDF7D8FC0028F9D002212846FDF7D2FCCA
:102B00000128F9D0FFF7D6FF2070FFF7D3FF6070E0
:102B1000FFF7D0FFA070FFF7CDFFE070FFF7CAFF0F
:102B2000207102212846FDF7BDFC0028F9D0FFF7EF
:102B300085FF012202212846FDF7B9FC277860783D
:102B400007EBC701804601EB071100EB8100FDF7A1
:102B50005BFBDFF844904946FDF718FBA060A578C1
:102B6000E67805EBC50000EB051006EB8000FDF7ED
:102B70004BFB4946FDF70AFBE06007EB0800A9198B
:102B800008442179C0B2814202D10020BDE8F0871B
:102B90000120FBE7000801400000C84210B5FFF724
:102BA0004DFF0A4C002202212046FDF780FC142034
:102BB000FFF706FF012202212046FDF778FC1420D2
:102BC000FFF710FFBDE81040FFF71CBF00080140F1
:102BD000FDF780FCFFF710FCFEF7BEFFFFF710F8D3
:102BE000FFF748F8FFF79CF8FFF7E4F8FFF764F801
:102BF000FFF732F9FFF712F9FEF79AFF0348FEF7E5
:102C0000F1FB00BFFFF728FEFCE7000018010020E1
:102C10000000000000000000002F0000000007007E
:102C2000070000147F147F1400242A7F2A120062F8
:102C300064081323003649552250000005030000A4
:102C400000001C224100000041221C000014083E2C
:102C500008140008083E0808000000A060000008F2
:102C60000808080800006060000000201008040246
:102C7000003E5149453E0000427F40000042615104
:102C80004946002141454B31001814127F1000279E
:102C900045454539003C4A49493000017109050361
:102CA00000364949493600064949291E0000363692
:102CB00000000000563600000008142241000014F5
:102CC00014141414000041221408000201510906D2
:102CD00000324959513E007C1211127C007F494953
:102CE0004936003E41414122007F4141221C007F84
:102CF00049494941007F09090901003E4149497A92
:102D0000007F0808087F0000417F4100002040410B
:102D10003F01007F08142241007F40404040007F77
:102D2000020C027F007F0408107F003E4141413EBB
:102D3000007F09090906003E4151215E007F091903
:102D400029460046494949310001017F0101003F00
:102D50004040403F001F2040201F003F4038403F80
:102D600000631408146300070870080700615149E4
:102D7000454300007F41410000552A552A55000077
:102D800041417F00000402010204004040404040F5
:102D9000000001020400002054545478007F48448D
:102DA000443800384444442000384444487F0038C4
:102DB0005454541800087E0901020018A4A4A47CED
:102DC000007F080404780000447D400000408084B7
:102DD0007D00007F102844000000417F4000007CFF
:102DE00004180478007C080404780038444444380B
:102DF00000FC242424180018242418FC007C080457
:102E0000040800485454542000043F444020003C2F
:102E10004040207C001C2040201C003C4030403CB6
:102E2000004428102844001CA0A0A07C0044645446
:102E30004C4414141414141400000000000000008A
:102E40000000000000007C00000000000200000004
:102E500000040304030000000000000090FC90FC4C
:102E600090000003000300001824FE4488000102C3
:102E7000070201003844F8D02CC000030001020111
:102E8000C038E418E020010202010201040300003E
:102E900000000000000000000000F8060100000033
:102EA00000030400000106F8000000040300000015
:102EB0009060F8609000000001000000002020F801
:102EC00020200000000000000000000000000403BB
:102ED0000000000020202020202000000000000032
:102EE0000000000000000002000000000000C030F0
:102EF0000C02040300000000F8040404F8000102BE
:102F0000020201000008FC000000000203020000B1
:102F10001884442418000302020202000804242436
:102F2000D800010202020100C0A098FC800000004D
:102F3000020302007C242424C400010202020100D6
:102F4000F0482424C8000102020201000004C43435
:102F50000C00000003000000D8242424D800010243
:102F60000202010038444424F8000102020100007A
:102F7000000010000000000002000000000020001F
:102F8000000000000600000000609008040000003F
:102F9000000102005050505050500000000000004E
:102FA0000004089060000002010000001804C4241E
:102FB0001800000002000000F008E4F4847800012A
:102FC0000202020100E09CF0800002030000030204
:102FD00004FC2424D800020302020100F8040404C3
:102FE0000C0001020202010004FC0404F8000203C8
:102FF0000202010004FC24740C000203020203001C
:1030000004FC24740C00020302000000F0080444D5
:10301000CC4000010202010004FC2020FC04020359
:10302000000003020404FC04040002020302020084
:10303000000404FC04040C080807000004FC2450ED
:103040008C0402030200030204FC040000000203DB
:1030500002020203FC3CC03CFC0403000300030228
:1030600004FC30C4FC04020302000300F80404045E
:10307000F80001020202010004FC242418000203EB
:1030800002000000F8848404F80001020207050031
:1030900004FC246498000203020003021824244460
:1030A0008C000302020201000C04FC040C0000026C
:1030B0000302000004FC0000FC0400010202010005
:1030C000047C80E01C040000030000003CC07CC0C5
:1030D0003C00000300030000049C609C0400020309
:1030E00000030200043CC03C040000020302000094
:1030F0000C84641C04000203020203000000FF01B0
:103100000100000007040400000638C000000000B1
:1031100000010600000101FF000000040407000098
:10312000000201020000000000000000000000009A
:10313000000008080808080800010200000000005C
:10314000000000000040A0A0C00000010202030235
:1031500002FE2020C00000030202010000C0202067
:10316000600000010202010000C02022FE000001F8
:103170000202030200C0A0A0C0000001020202007F
:103180000020FC2222040002030202000040A0A052
:10319000602000050A0A0A0402FE2020C000020383
:1031A000020003020020E60000000002030200000B
:1031B000000020E6000008080807000002FE80600A
:1031C00020000203000102000202FE0000000202D1
:1031D00003020200E020E020C0000300030003001F
:1031E00020E02020C00002030200030200C02020D3
:1031F000C00000010202010020E02020C000080FF2
:103200000A02010000C02020E0000001020A0F08AD
:1032100020E0402020000203020000000060A0A087
:1032200020000002020203000020F820200000001D
:103230000302020020E00020E0000001020203027D
:1032400020E000E020000000030000006080E0803B
:103250006000000300030000206080602000020383
:103260000003020020E00000E02008080503000041
:103270000020A0602000000203020200000020FFE6
:103280000100000000070400000000FF0000000033
:10329000000F00000001DF20000000040700000014
:1032A0000201010201000000000000000000000017
:1032B000000000000000000000000000000000F816
:1032C00000000000000000330000000000100C02AD
:1032D000100C020000000000000000000040C07858
:1032E00040C0780000043F04043F04000070888858
:1032F000FC08300000182020FF211E00F008F0809C
:103300006018000000310C031E211E0000F0088828
:10331000700000001E21232C1927211000120E001E
:10332000000000000000000000000000000000E0BD
:1033300018040200000000071820400000020418D2
:10334000E00000000040201807000000404080F02E
:10335000804040000202010F010202000000000054
:10336000E0000000000101010F0101010000000068
:10337000000000000090700000000000000000004D
:103380000000000000010101010101000000000037
:1033900000000000003030000000000000000000CD
:1033A000C0380400006018070000000000E01008AA
:1033B0000810E000000F102020100F000000101077
:1033C000F8000000000020203F20200000700808C6
:1033D0000808F000003028242221300000300808BE
:1033E000088870000018202121221C000000804065
:1033F00030F8000000060524243F242400F88888C3
:10340000880808000019202020110E0000E0108814
:1034100088900000000F112020201F0000180808CD
:10342000886818000000003E010000000070880855
:1034300008887000001C222121221C0000F00808CE
:103440000810E0000001122222110F00000000C04D
:10345000C0000000000000303000000000000080CC
:1034600000000000000000E00000000000008040BC
:103470002010080000010204081020000040404015
:103480004040400000020202020202000008102038
:10349000408000000020100804020100007048086D
:1034A000088870000000003037000000C030C828D5
:1034B000E810E000071827282F2817000000C03860
:1034C000E0000000203C23020227382008F888880A
:1034D00088700000203F202020110E00C030080816
:1034E00008083800071820202010080008F80808ED
:1034F0000810E000203F202020100F0008F88888E6
:10350000E8081000203F20202320180008F88888B1
:10351000E8081000203F200003000000C030080829
:103520000838000007182020221E020008F80800B2
:103530000008F808203F210101213F20000808F879
:10354000080800000020203F20200000000008089C
:10355000F8080800C08080807F00000008F888C05C
:1035600028180800203F20012638200008F808000D
:1035700000000000203F20202020300008F8F80044
:10358000F8F80800203F013E013F200008F830C055
:103590000008F808203F200007183F00E010080846
:1035A0000810E0000F10202020100F0008F8080875
:1035B0000808F000203F210101010000E010080888
:1035C0000810E0000F10282830504F0008F88888B5
:1035D00088887000203F2000030C3020007088088D
:1035E000080838000038202121221C00180808F89B
:1035F000080818000000203F2000000008F808001C
:103600000008F808001F202020201F0008788800EC
:1036100000C83808000007380E01000008F800F85C
:1036200000F8080000033E013E030000081868800F
:103630008068180820302C03032C30200838C8007C
:10364000C83808000000203F2000000010080808CB
:10365000C83808002038262120201800000000FE6D
:10366000020202000000007F40404000000438C019
:1036700000000000000000010638C0000002020245
:10368000FE000000004040407F00000000000402F7
:103690000204000000000000000000000000000024
:1036A0000000000080808080808080800002020412
:1036B000000000000000000000000000000080800A
:1036C0008000000000192424123F200010F0008028
:1036D00080000000003F112020110E00000000803B
:1036E00080800000000E112020201100000080804A
:1036F0008090F000001F202020103F2000008080DC
:1037000080800000001F242424241700008080E013
:10371000909020000020203F2020000000008080AA
:1037200080808000006B94949493600010F000807F
:1037300080800000203F210000203F2000809898DA
:10374000000000000020203F20200000000000803A
:103750009898000000C08080807F000010F000007A
:1037600080808000203F240629302000001010F8BF
:10377000000000000020203F20200000808080808A
:1037800080808000203F20003F20003F808000801C
:1037900080800000203F210000203F20000080802A
:1037A00080800000001F202020201F0080800080DB
:1037B0008000000080FF912020110E00000000809A
:1037C00080008000000E11202091FF80808080000A
:1037D0008080800020203F212000010000008080A8
:1037E000808080000033242424241900008080E09D
:1037F000808000000000001F20201000808000005A
:1038000000808000001F202020103F20808080004A
:103810008080800000030C300C030000808000805A
:1038200080008080010E300C073806010080808007
:10383000008080000020310E2E312000808080002A
:1038400000808080008186781806010000808080DA
:10385000808080000021302C2221300000000000F8
:1038600000FC020200000000013E40400000000099
:10387000FF00000000000000FF0000000202FC004A
:103880000000000040403E01000000000002010274
:103890000204020000000000000000000000C0E080
:1038A00030101030E0C0000000FFFF0000000000FA
:1038B00000FFFF00000003070C08080C07030000CE
:1038C0000000202020E0F0000000000000000000C8
:1038D00000FFFF000000000000000808080F0F08AC
:1038E0000808000000C0A01010101030E0C0000058
:1038F00000010100806030180F030000000C0E0969
:1039000008080808080F000000E0E010101030E080
:10391000C00000000000000008080C17F3C0000001
:10392000000707080808080C070300000000000053
:10393000008040F0F00000000060504C424140FF29
:10394000FF404040000000000008080F0F0808007A
:103950000000F010101010101010000000809F08E0
:103960000404040CF8F00000000305080808080E21
:10397000070100000000C0E020101010706000007F
:1039800000FEFF10080404040CF8F0000000030619
:103990000C080808040701000000E03010101010A7
:1039A00090703000000000000080F00C0300000068
:1039B00000000000000F0F000000000000C0E03019
:1039C0001010101030E0C00000C1E7360C081818C5
:1039D00034E7C10000030704080808080C070300C7
:1039E0000080E0601010101060C00000000F1F3059
:1039F0002020201088FF7F000000060E0808080421
:103A000007010000000000000000000000000000AE
:103A100000000000000E0E0E00000000000000007C
:103A2000000E0E0E0000000000000000000000006C
:103A30000000000000000000000000000000000086
:103A400000000000000000000000000000000080F6
:103A5000C0E07030101070E0C08000000000FCFF7B
:103A6000FF03000000000001FFFFFC0000000F7FCB
:103A7000FFF08000000080E0FF7F0F0000000000EA
:103A800000010303020203010000000000000040E7
:103A9000404040E0F0F000000000000000000000A6
:103AA000000000FFFFFF0000000000000000000019
:103AB000000000FFFFFF0000000000000000000207
:103AC000020203030303030202020000000080C09D
:103AD0006030101010103070E0E080000000070728
:103AE000060000000080C0F07F3F0F00000080C093
:103AF00060301C0E0703010080F0F000000003039B
:103B00000303030303030303030300000000C0E0F7
:103B1000E0301010103070E0C0800000000003039F
:103B20000300404040E0F0BF9F0F00000000F0F0B5
:103B3000F000000000000081FFFF3C0000000001D9
:103B40000103020202020301010000000000000064
:103B500000000000C0F0F0F0000000000000008055
:103B6000E0781C0703FFFFFF00000000000C0F0BB4
:103B70000908080808FFFFFF080808000000000007
:103B8000000002020203030302020200000000C060
:103B9000F03030303030303030303000000000FF56
:103BA000FF60301010103070E0C000000000F0F036
:103BB00030000000000000C0FFFF3F0000000001D7
:103BC00001030202020203010100000000000000E4
:103BD000C0E06030101010F0E0E000000000F8FFDE
:103BE000FFE1303010103070E0C0000000001F7F97
:103BF000FFE0800000000080FFFF3F0000000000A9
:103C0000010103030202030301000000000080F031
:103C1000F0303030303030B0F0703000000003034E
:103C200000000000C0F83E07010000000000000096
:103C30000000F0FFFF000000000000000000000096
:103C4000000003030300000000000000000080C02B
:103C5000E070301010103070E0C0800000000F9F46
:103C6000BFFC7070E0C0E0B09F1F0700007CFFFF4A
:103C70008300000000010387FFFF7C0000000001BB
:103C80000103020202020301010000000000C0E083
:103C9000E0301010101030E0C0800000007FFFFF07
:103CA000C0000000000080C0FFFFFE000000C0C197
:103CB000C30302020283C1F97F1F07000000010154
:103CC00003020202030301000000000000000000E4
:103CD00000000000000000000000000000000000E4
:103CE000000030787878300000000000000000000C
:103CF000000080C0C0C08000000000000000000084
:103D000000000103030301000000000000000000A8
:103D100000000000000000000000000000000000A3
:103D20000000000000000000000000000000000093
:103D30000000000000000000000000000000000083
:103D40000000000000000000000000000000000073
:103D500080C0E0E07030101030E0E0C08000000073
:103D60000000F0FEFFFF0F0000000000000007FF52
:103D7000FFFEF00000007FFFFFFF8000000000005A
:103D8000000000FFFFFF7F00000000030F1F3F380F
:103D90006060404060383F1F0F03000000000000DB
:103DA0000000000000000000000000000000000013
:103DB000000000000080808080C0E0F0F000000083
:103DC00000000000000000000000000000FFFFFFF6
:103DD000FF000000000000000000000000000000E4
:103DE00000FFFFFFFF0000000000000000000000D7
:103DF00000404040607F7F7F7F6040404040000047
:103E000000000000000000000000000000000000B2
:103E100000000000000000C0C06020301010103012
:103E200030F0E0E0C000000000001F1F1F1C000079
:103E30000000000000C0FFFF7F1F00000000000026
:103E4000000080C0E070381E0F0703010000000072
:103E5000000070787C6F676360606060606070789D
:103E60007E0E0000000000000000000000000000C6
:103E70000000000000000000000080C0E060301082
:103E800010103030F0E0E0C0000000000000070F2C
:103E90000F0E000000008080E0FF7F3F1F00000049
:103EA000000000808080000101010103070EFEFC7C
:103EB000F8E0000000000F1F3F37604040404060C6
:103EC00070383F1F0F0300000000000000000000DA
:103ED00000000000000000000000000000000000E2
:103EE00000000000000000C0E0F0F0000000000052
:103EF000000000000000C0E0781C0F03FFFFFF007F
:103F000000000000004060785C4F4340404040406B
:103F1000FFFFFF4040404040000000000000000064
:103F2000404040407F7F7F604040400000000000F4
:103F30000000000000000000000000000000000081
:103F400000000000F0F030303030303030303030B1
:103F500030300000000000F8FF0780C0C0C0C0C0C3
:103F6000C0C08000000000000000008787870101BA
:103F7000000000000107FFFFFEF800000000071F1F
:103F80003F23604040404060703C3F1F0F030000F3
:103F90000000000000000000000000000000000021
:103FA00000000000000000000080C0E06030101041
:103FB0001010F0F0E0C000000000E0FCFFFF078000
:103FC000C0C0C0C0C0C0C181810100000000FFFFAF
:103FD000FFFF070301000000010107FFFFFEF800DB
:103FE000000000070F1F3E38606040404060383FCF
:103FF0001F0F030000000000000000000000000090
:10400000000000000000000000000080F0F07030B0
:1040100030303030303030F0F070300000000003CD
:1040200003000000000000C0F03C0F07010000008A
:104030000000000000000000F0FCFF0F0100000085
:1040400000000000000000000000003F7F7F7F00B4
:104050000000000000000000000000000000000060
:104060000000000000000000000000000000000050
:10407000C0E0E0F0301010101030F0E0E0C00000C0
:104080000000001F7FFFFFF0E0C080800080E0FFA5
:104090007F3F1F000000E0F0F8FC1E070303070746
:1040A0000F1F3FFCFCF0E0000000070F1F3F3860CF
:1040B000604040404060383F1F0F07000000000094
:1040C00000000000000000000000000000000000F0
:1040D00000000080C0E0E070301010103070E0C0D0
:1040E000800000000000FEFFFFFF01000000000054
:1040F000000081FFFFFFF800000001070F0F1F1CE9
:104100001C1818180C0EC7FFFFFF1F000000001C32
:104110003C7C7C4040406060383C1F0F0701000041
:10412000000000000000000000000000000000008F
:10413000000000000000000000000000000000007F
:10414000000000000000000000000000000000303F
:1041500078787830000000000000000000000000C7
:10416000000000000000000000000000000000004F
:1041700000000000000000183C3C3C18000000005B
:10418000000000000000000000000000000000002F
:10419000000000000000000000000000000000001F
:1041A000000000000000000000000000000000000F
:1041B00000000000000000000000000000000000FF
:1041C00000000000000000000000000000000000EF
:1041D00000000000000000000000000000000000DF
:1041E00000000000000000000000000000000000CF
:1041F0000000000000000000000000001060020C41
:10420000C004040404FC04040404000004047C034B
:1042100020202020203F2020202020001060028C21
:1042200000445454F45F54D45444400004047E01C8
:1042300020100C030A52827F0202020000F80C0BCD
:104240000808F840308F080808F80000007F212196
:1042500021217F0000004380403F00002020FF20FC
:1042600024F4545454FF545556F404000000FF0045
:10427000080B1969090B49897D0B0800100C84444F
:10428000B4A4252624A4642404140C00040404FA11
:104290004A4A4949494A4AFA04040400109292FEE3
:1042A0009292FE10098A8CF88C8A0900100CFF4447
:1042B0004444FC00080808FF08080800000000004B
:1042C0000830F0E000004040404040404040C0C066
:1042D0004040404040406060400000000000040C4E
:1042E00038300080700E0100000000000000FFFF69
:1042F000000000000000000000000000000020207E
:10430000E0F03C0300000000000000000000FFFFA0
:10431000000000000000000000000000000000009D
:104320001F1F000404040404040404040404070715
:104330000404040404040406060400000000000051
:10434000000830F0E0000080808080808080FCF8F1
:10435000888080808080C0E0800000000000081815
:1043600030700000E09C838080888888E8FC9F890A
:1043700088888888888CCCC0C080000000004040BD
:10438000C0E0F80F000000C060301C17D390901000
:1043900010101011FE161010181000000000000080
:1043A0001C3F3F080402010000000000000107124A
:1043B000101030703F0000000000000000000000FE
:1043C000800000807C18080000800000000080F061
:1043D000781800000000000000000000000000004D
:1043E000FFFF010101010101FFFF8140301C870334
:1043F000020202020202FEFF0600000000000000AE
:10440000FFFF020202020202FFFF00000000010F94
:104410003E1800000000FFFF000000000000000048
:104420003F3F0808080808083F3F00000000000060
:104430000810103070383F0F00000000000000002E
:1044400000FCF8080000404040404040404040FC34
:104450004840444858784060604000000000080828
:1044600008FFFF08080C0800FEFE2222222222FF7D
:104470002222222222FEFE00000000000000000096
:1044800000FFFF0000404040DF4F42424242424FA7
:104490004242424AF25F4760604000000000000074
:1044A000007F3F00000000000001030E000000003C
:1044B000102020703F0000000000000000000000FD
:1044C000C0C040404040404040444C58784040408C
:1044D000404040404040C0E0C08000000000000775
:1044E000030000806030181E2F4A88080888C868BA
:1044F000381C1800000301000000000000808080CC
:104500004042412020E07050584C44474343444CC3
:104510004858F8F030307070302000000000000083
:1045200000000000007F101010101010101010106C
:1045300010107F3F0000000000000000C0F010D00D
:10454000D0D010D0D0D010D0D0D0F000071F10178E
:10455000171710171717101717171F0008182848D4
:104560008848281808000000E000F80000004040DB
:104570007F4040007C007F007F007F00000000083B
:10458000102040FE86C468300000000000000010CB
:104590000804027F6123160C0000000000000000E8
:1045A00000000000010203040607080900000000E3
:1045B00001020304545545004652490057454E0038
:1045C0004D4F4E0053554E00534154005448550032
:1045D000F0450008000000209C000000A22900080F
:1045E0008C4600089C0000203C050000B229000811
:1045F000FFFF000000FFFF0000000000000032305D
:1046000032302D30312D30310031323A30303A30C5
:1046100030002A2A2A0030302E30300030302E3040
:1046200030000000C4450008C0450008B44500083B
:10463000BC450008CC450008B8450008C84500083E
:104640000101F401F4010000F52700080101F40163
:1046500010270000E52600080101E803E803000038
:10466000712600080100E803B80B00007527000858
:104670000000000000000000000000000100000039
:0C46800010000000000000000024F40006
:0400000508000131BD
:00000001FF
